:0D0B5600010A00010900020B000001080067
:100B4500538E7F5389F0758A66758CFCC28DD2A948
:010B5500227D
:03000B00020B22C3
:100B2200C0E0C0D0D3E50C9400E50B9400400AE588
:100B32000C150C7009150B8005750801C28CD0D0FC
:030B4200D0E032CE
:0A0B6700E4F5088E0B8F0CD28C22EF
:10080000E4F50FF510F50A120B45D2AF7F907E018B
:10081000120B67850D0EE50864017007E50A700389
:10082000750A01120A028F0DE5102401FFE4350F4D
:10083000FE7C007D64120A7F8C0F8D10E50D64052F
:1008400060030208D8E509045401F5096401706EDB
:10085000E50A640170687F0AFE120B67E508702ED6
:10086000AF0EEF64026005EF6401700AE4FF120A44
:10087000D47F01120AFBAF0EEF64036005EF64043E
:1008800070DA7F01120AD4E4FF120AFB80CE7F4B9C
:100890007E00120B677F01120AD47F01120AFBE56A
:1008A0000860FC7F267E02120B677F78120AFB7FAE
:1008B00078120AD4E50860FC750A010208137F0368
:1008C0007E00120B677F01120AFB7F01120AD4E53A
:1008D00008600302081380F7E50D6402701DD3E57C
:1008E000109428E50F940040097F01120AFBE4FFF1
:1008F00080487F78120AFB7F78803FE50D640370A3
:100900001DD3E5109428E50F940040097F01120AD9
:10091000D4E4FF80477F78120AD47F78803EE50DCB
:100920006404701CD3E5109405E50F940040047F27
:100930000180027F78120AFB7F01120AD402081399
:10094000E50D6401701CD3E5109405E50F9400409B
:10095000047F0180027F78120AD47F01120AFB0211
:100960000813E50D60030208137F01120AD47F010A
:06097000120AFB0208134D
:030000000209767C
:0C097600787FE4F6D8FD7581110209BD00
:100AD400EFFD7C007009D2A0C2A1D2A2C2A322ED74
:100AE40064014C7009C2A0D2A1C2A2D2A322C2A0A6
:070AF400C2A1C2A2C2A322AD
:100AFB00EFFD7C007009D2A4C2A5D2A6C2A722ED3D
:100B0B0064014C7009C2A4D2A5C2A6D2A722C2A46A
:070B1B00C2A5C2A6C2A72279
:030B63000111007D
:100A0200A286E433FFA287E4332FFFA285E4332FCB
:100A1200FFA284E4332FFFA283E4332FFFA282E4F8
:100A2200332FFF3395E0FEC3EF9401EE6480948090
:100A32005003AF11222087033086092083033082BE
:100A4200037F0522308508308405E4F511FF22304A
:100A520085067511017F01223084067511047F0419
:100A62002230830280033082067511037F03223015
:0C0A7200870280033086057511027F02A8
:010A7E002255
:10098200020800E493A3F8E493A34003F68001F283
:1009920008DFF48029E493A3F85407240CC8C33376
:1009A200C4540F4420C8834004F456800146F6DF45
:1009B200E4800B0102040810204080900B56E47E74
:1009C200019360BCA3FF543F30E509541FFEE4933A
:1009D200A360010ECF54C025E060A840B8E493A301
:1009E200FAE493A3F8E493A3C8C582C8CAC583CA2C
:1009F200F0A3C8C582C8CAC583CADFE9DEE780BEE4
:010B6600008E
:100A7F00BC000BBE0029EF8DF084FFADF022E4CC5B
:100A8F00F875F008EF2FFFEE33FEEC33FCEE9DEC24
:100A9F00984005FCEE9DFE0FD5F0E9E4CEFD22ED6A
:100AAF00F8F5F0EE8420D21CFEADF075F008EF2FB4
:100ABF00FFED33FD4007985006D5F0F222C398FDA5
:050ACF000FD5F0EA2242
:00000001FF
