:0D0B2100010A00010900020B00000108009C
:100B1000538E7F5389F0758A66758CFCC28DD2A97D
:010B200022B2
:03000B00020AEDF9
:100AED00C0E0C0D0D3E50C9400E50B9400400AE5BE
:100AFD000C150C7009150B8005750801C28CD0D032
:030B0D00D0E03203
:0A0B3200E4F5088E0B8F0CD28C2224
:10080000E4F50FF510F50A120B10D2AF7F2C7E0124
:10081000120B32850D0EE50864017007E50A7003BE
:10082000750A011209CD8F0DE5102401FFE4350F83
:10083000FE7C007D64120A4A8C0F8D10E50D640564
:100840007061E50E64056007E509045401F509E5EA
:100850000964017034E50A6401702E7F14FE120BE6
:10086000327F01120A9F7F01120AC6E50860FC7FF1
:10087000267E02120B327F78120AC67F78120A9FF8
:10088000E50860FC750A01808A7F037E00120B3246
:100890007F01120AC67F01120A9FE5086003020861
:1008A0001380F7E50D6402701DD3E5109428E50F61
:1008B000940040097F01120AC6E4FF80487F781245
:1008C0000AC67F78803FE50D6403701DD3E5109460
:1008D00028E50F940040097F01120A9FE4FF80473A
:1008E0007F78120A9F7F78803EE50D6404701CD3E8
:1008F000E5109405E50F940040047F0180027F78A5
:10090000120AC67F01120A9F020813E50D640170E6
:100910001CD3E5109405E50F940040047F0180028C
:100920007F78120A9F7F01120AC6020813E50D6044
:10093000030208137F01120A9F7F01120AC60208F0
:0109400013A3
:03000000020941B1
:0C094100787FE4F6D8FD7581110209886A
:100A9F00EFFD7C007009D2A0C2A1D2A2C2A322EDA9
:100AAF0064014C7009C2A0D2A1C2A2D2A322C2A0DB
:070ABF00C2A1C2A2C2A322E2
:100AC600EFFD7C007009D2A4C2A5D2A6C2A722ED72
:100AD60064014C7009C2A4D2A5C2A6D2A722C2A4A0
:070AE600C2A5C2A6C2A722AF
:030B2E00011100B2
:1009CD00A286E433FFA287E4332FFFA285E4332F01
:1009DD00FFA284E4332FFFA283E4332FFFA282E42E
:1009ED00332FFF3395E0FEC3EF9401EE64809480C6
:1009FD005003AF11222087033086092083033082F4
:100A0D00037F0522308508308405E4F511FF22307F
:100A1D0085067511017F01223084067511047F044E
:100A2D002230830280033082067511037F0322304A
:0C0A3D00870280033086057511027F02DD
:010A4900228A
:10094D00020800E493A3F8E493A34003F68001F2B8
:10095D0008DFF48029E493A3F85407240CC8C333AB
:10096D00C4540F4420C8834004F456800146F6DF7A
:10097D00E4800B0102040810204080900B21E47EDE
:10098D00019360BCA3FF543F30E509541FFEE4936F
:10099D00A360010ECF54C025E060A840B8E493A336
:1009AD00FAE493A3F8E493A3C8C582C8CAC583CA61
:1009BD00F0A3C8C582C8CAC583CADFE9DEE780BE19
:010B310000C3
:100A4A00BC000BBE0029EF8DF084FFADF022E4CC90
:100A5A00F875F008EF2FFFEE33FEEC33FCEE9DEC59
:100A6A00984005FCEE9DFE0FD5F0E9E4CEFD22ED9F
:100A7A00F8F5F0EE8420D21CFEADF075F008EF2FE9
:100A8A00FFED33FD4007985006D5F0F222C398FDDA
:050A9A000FD5F0EA2277
:00000001FF
