:100B2500010A00010900020B0BB8020D00000108C3
:010B350000BF
:100B3A00538E7F5389F0758A66758CFCC28DD2A953
:010B4A002288
:03000B00020B02E3
:100B0200C0E0C0D0D3E50E9400E50D9400400AE5A4
:100B12000E150E7009150D8005750801C28CD0D016
:030B2200D0E032EE
:0A0B4B00E4F5088E0D8F0ED28C2207
:10080000E4F511F512F50A120B3AD2AF850F10E597
:100810000A7008E50C150C7002150BE50C450B7001
:1008200003750A011209E28F0FE5122401FFE43576
:1008300011FE7C007D64120A5F8C118D12E50F643D
:10084000057061E5106405600DE50A64017007E557
:1008500009045401F509E5096401702E7F14FE12A4
:100860000B4B7F01120AB47F01120ADBE50860FC22
:100870007FFA7E00120B4B7F78120ADB7F78120A18
:10088000B4E50860FC750A0180827F037E00120BCC
:100890004B7F01120ADB7F01120AB4E508600302F4
:1008A000080C80F7E50F6402701DD3E5129432E561
:1008B00011940040097F01120ADBE4FF80487F7831
:1008C000120ADB7F78803FE50F6403701DD3E512C9
:1008D0009432E511940040097F01120AB4E4FF80CC
:1008E000627F78120AB47F788059E50F6404701C27
:1008F000D3E5129405E511940040047F0180027F46
:1009000078120ADB7F01120AB402080CE50F6401B9
:100910007018D3E5129405E511940040047F01801E
:10092000027F78120AB47F018019E50F6003020884
:100930000CD3E512941EE5119400400D7F01120ABC
:10094000B47F01120ADB02080C7F78120AB47F78A8
:06095000120ADB02080C94
:030000000209569C
:0C095600787FE4F6D8FD75811302099D3E
:100AB400EFFD7C007009D2A0C2A1D2A2C2A322ED94
:100AC40064014C7009C2A0D2A1C2A2D2A322C2A0C6
:070AD400C2A1C2A2C2A322CD
:100ADB00EFFD7C007009D2A4C2A5D2A6C2A722ED5D
:100AEB0064014C7009C2A4D2A5C2A6D2A722C2A48B
:070AFB00C2A5C2A6C2A7229A
:030B3600011300A8
:1009E200A286E433FFA287E4332FFFA285E4332FEC
:1009F200FFA284E4332FFFA283E4332FFFA282E419
:100A0200332FFF3395E0FEC3EF9401EE64809480B0
:100A12005003AF13222087033086092083033082DC
:100A2200037F0522308508308405E4F513FF223068
:100A320085067513017F01223084067513047F0435
:100A42002230830280033082067513037F03223033
:0C0A5200870280033086057513027F02C6
:010A5E002275
:10096200020800E493A3F8E493A34003F68001F2A3
:1009720008DFF48029E493A3F85407240CC8C33396
:10098200C4540F4420C8834004F456800146F6DF65
:10099200E4800B0102040810204080900B25E47EC5
:1009A200019360BCA3FF543F30E509541FFEE4935A
:1009B200A360010ECF54C025E060A840B8E493A321
:1009C200FAE493A3F8E493A3C8C582C8CAC583CA4C
:1009D200F0A3C8C582C8CAC583CADFE9DEE780BE04
:010B390000BB
:100A5F00BC000BBE0029EF8DF084FFADF022E4CC7B
:100A6F00F875F008EF2FFFEE33FEEC33FCEE9DEC44
:100A7F00984005FCEE9DFE0FD5F0E9E4CEFD22ED8A
:100A8F00F8F5F0EE8420D21CFEADF075F008EF2FD4
:100A9F00FFED33FD4007985006D5F0F222C398FDC5
:050AAF000FD5F0EA2262
:00000001FF
