:10080000E4F509F50A12088F8F08E50A2401FFE4D0
:100810003509FE7C007D641208FE8C098D0AE5080E
:100820007020D3E50A9428E509940040097F01125D
:10083000097AE4FF80077F7812097A7F78120953DA
:1008400080C3E5086402701DD3E50A9428E5099485
:100850000040097F01120953E4FF80217F781209CB
:10086000537F788018E5086401709AD3E50A940AEA
:10087000E5099400400C7F011209537F0112097AA7
:0F0880008083E4FF120953E4FF12097A0208058E
:030000000209A151
:0C09A100787FE4F6D8FD75810B02080099
:10095300EFFD7C007009D2A0C2A1D2A2C2A322EDF6
:1009630064014C7009C2A0D2A1C2A2D2A322C2A028
:07097300C2A1C2A2C2A3222F
:10097A00EFFD7C007009D2A4C2A5D2A6C2A722EDBF
:10098A0064014C7009C2A4D2A5C2A6D2A722C2A4ED
:07099A00C2A5C2A6C2A722FC
:10088F00A296E433FFA297E4332FFFA295E4332F10
:10089F00FFA294E4332FFFA293E4332FFFA292E43D
:1008AF00332FFD3395E0FCC3ED9401EC648094800D
:1008BF005003AF0B22D3ED9402EC6480948040037D
:1008CF00AF0B223097028003309605E4F50BFF2221
:1008DF003095028003309406750B017F012230930F
:0E08EF00028003309206750B027F0222AF0BCF
:0108FD0022D8
:1008FE00BC000BBE0029EF8DF084FFADF022E4CCDE
:10090E00F875F008EF2FFFEE33FEEC33FCEE9DECA6
:10091E00984005FCEE9DFE0FD5F0E9E4CEFD22EDEC
:10092E00F8F5F0EE8420D21CFEADF075F008EF2F36
:10093E00FFED33FD4007985006D5F0F222C398FD27
:05094E000FD5F0EA22C4
:00000001FF
