:100B6D0002120000020A0000010800010900010C38
:100B7D0000010D00010E00010F0001100001110018
:100BAD00538E7F5389F0758AFF758CFFC28DD2A944
:030BBD00D28C22B5
:100B8E0053877F759850538EBF538EFE53890F43F4
:0F0B9E008920758BFD758DFDC2ABD28ED2AC2236
:03002300020B4885
:100B4800C0E0C0D0309814E599B44105750901801A
:100B580008E599B45303750906C298309902C299F9
:050B6800D0D0D0E03206
:03000B00020A43A3
:100A4300C0E0C0F0C0D075D000C000C004C005C075
:100A530006C007E5132401FFE43512FE7C037DE89D
:100A6300120AA58C128D13E50964027024E513B4F0
:100A7300E70DE512B40308050BE50B7002050AE563
:100A83000BB4880DE50AB41308750A00750B00054D
:100A930009D007D006D005D004D000D0D0D0F0D0F4
:020AA300E0323F
:10080000120B8E120BADD2AF750901A296E433FF25
:10081000A297E4332FFFA295E4332FFFA294E43391
:100820002FFFA293E4332FFFA292E4332FF508FFAA
:100830007E00D39400748094804024A297E433F522
:100840000CA296E433F50DA295E433F50EA294E4E0
:1008500033F50FA293E433F510A292E433F511D3EC
:10086000EF9403EE6480948040040509809DAF09F5
:10087000EF64066044EF64027002803DE50C6401A1
:10088000700DD3E5139490E512940140508045E536
:10089000116401700FD3E5139490E51294014002A6
:1008A00080138015E51064017019D3E5139490E569
:1008B00012940140047F01805A7F78120AFA7F78EF
:1008C0000209A4E50D64017021D3E5139490E512AB
:1008D000940140097F01120B21E4FF80077F781209
:1008E0000B217F78120AFA02080BE50E64017035BD
:1008F000E50F6401702FE5096404701FD3E51394BC
:1009000064E5129400400A7F01120AFA7F0102098D
:10091000A4E4FF120AFAE4FF0209A47F01120AFA12
:100920007F010209A4E50E6401703BE509640470CF
:100930001DD3E5139464E512940040097F01120A67
:10094000FA7F01805FE4FF120AFAE4FF8056D3E5E4
:10095000139464E512940040047F0180027F7812B2
:100960000AFA7F01803EE50F6401600302080BE58F
:10097000096404701DD3E5139464E51294004009E2
:100980007F01120AFA7F01801BE4FF120AFAE4FFDA
:100990008012D3E5139464E5129400400D7F011298
:1009A0000AFA7F01120B2102080B7F01120AFA7F5B
:0709B00078120B2102080B75
:030000000209B73B
:0C09B700787FE4F6D8FD7581130209FE7C
:100AFA00EFFD7C007009D2A0C2A1D2A2C2A322ED4E
:100B0A0064014C7009C2A0D2A1C2A2D2A322C2A07F
:070B1A00C2A1C2A2C2A32286
:100B2100EFFD7C007009D2A4C2A5D2A6C2A722ED16
:100B310064014C7009C2A4D2A5C2A6D2A722C2A444
:070B4100C2A5C2A6C2A72253
:1009C300020800E493A3F8E493A34003F68001F242
:1009D30008DFF48029E493A3F85407240CC8C33335
:1009E300C4540F4420C8834004F456800146F6DF04
:1009F300E4800B0102040810204080900B6DE47E1C
:100A0300019360BCA3FF543F30E509541FFEE493F8
:100A1300A360010ECF54C025E060A840B8E493A3BF
:100A2300FAE493A3F8E493A3C8C582C8CAC583CAEA
:100A3300F0A3C8C582C8CAC583CADFE9DEE780BEA2
:010B8D000067
:100AA500BC000BBE0029EF8DF084FFADF022E4CC35
:100AB500F875F008EF2FFFEE33FEEC33FCEE9DECFE
:100AC500984005FCEE9DFE0FD5F0E9E4CEFD22ED44
:100AD500F8F5F0EE8420D21CFEADF075F008EF2F8E
:100AE500FFED33FD4007985006D5F0F222C398FD7F
:050AF5000FD5F0EA221C
:00000001FF
