:030AF600010D00EF
:080AED007FC37E8ADEFEDFFC00
:010AF50022DE
:0C0AE0007F26E4FE7D76DDFEDEFCDFFA02
:010AEC0022E7
:100AA60053877F759850538EBF538EFE53890F43DD
:0F0AB6008920758BFD758DFDC2ABD28ED2AC221F
:03002300020AC509
:100AC500C0E0C0D030980AE599B44103750D01C264
:0B0AD50098309902C299D0D0D0E032D6
:10080000E4F509F50A750B01F50C120AA6D2AF1230
:1008100009908F08E50A2401FFE43509FE7C007D7C
:1008200064120A038C098D0AE50864067003750BCF
:1008300002E50B64027029050C7F01120A7F7F011B
:10084000120A58120AEDE50C64036002800D7F78ED
:10085000120A7F7F78120A58120AE0750B0180AFE6
:10086000E508701DD3E50A9428E509940040097F46
:1008700001120A7FE4FF804B7F78120A7F7F788025
:1008800042E5086403701DD3E50A9428E509940045
:1008900040097F01120A58E4FF804D7F78120A5800
:1008A0007F788044E5086404701FD3E50A9405E569
:1008B0000994007F014007120A7F7F018005120A18
:1008C0007F7F78120A5802080FE5086401701FD371
:1008D000E50A9405E50994007F014007120A587F54
:1008E000018005120A587F78120A7F02080FE50876
:1008F0006402600302080F7F01120A587F01120A86
:040900007F02080F5B
:03000000020904EE
:0C090400787FE4F6D8FD75810E02094BE7
:100A5800EFFD7C007009D2A0C2A1D2A2C2A322EDF0
:100A680064014C7009C2A0D2A1C2A2D2A322C2A022
:070A7800C2A1C2A2C2A32229
:100A7F00EFFD7C007009D2A4C2A5D2A6C2A722EDB9
:100A8F0064014C7009C2A4D2A5C2A6D2A722C2A4E7
:070A9F00C2A5C2A6C2A722F6
:10099000A296E433FFA297E4332FFFA295E4332F0E
:1009A000FFA294E4332FFFA293E4332FFFA292E43B
:1009B000332FFD3395E0FCC3ED9401EC648094800B
:1009C0005003AF0E22D3ED9402EC64809480400378
:1009D0007F06223097028003309605E4F50EFF2251
:1009E000309506750E017F0122309406750E047F46
:1009F00004223093028003309206750E037F032297
:020A0000AF0E37
:010A020022D1
:10091000020800E493A3F8E493A34003F68001F2F5
:1009200008DFF48029E493A3F85407240CC8C333E8
:10093000C4540F4420C8834004F456800146F6DFB7
:10094000E4800B0102040810204080900AF6E47E47
:10095000019360BCA3FF543F30E509541FFEE493AC
:10096000A360010ECF54C025E060A840B8E493A373
:10097000FAE493A3F8E493A3C8C582C8CAC583CA9E
:10098000F0A3C8C582C8CAC583CADFE9DEE780BE56
:010AF90000FC
:100A0300BC000BBE0029EF8DF084FFADF022E4CCD7
:100A1300F875F008EF2FFFEE33FEEC33FCEE9DECA0
:100A2300984005FCEE9DFE0FD5F0E9E4CEFD22EDE6
:100A3300F8F5F0EE8420D21CFEADF075F008EF2F30
:100A4300FFED33FD4007985006D5F0F222C398FD21
:050A53000FD5F0EA22BE
:00000001FF
