:03092700010800C4
:03092E00D2AF2223
:10090400538E7F5389F0438902758AFF758CFFC229
:060914008DD28CD2A92255
:03000B0002088C5C
:10088C00C0E0C0D075D000C006C007AF08EF3395EC
:10089C00E0FE4F700AC2A1D2A0C2A3D2A2800EBEAB
:1008AC00FF15BFFF12D2A1C2A0D2A3C2A2C2A5D271
:1008BC00A4C2A7D2A68016EF64014E7010C2A1D2BA
:1008CC00A0C2A3D2A2D2A5C2A4D2A7C2A6D007D03E
:0608DC0006D0D0D0E0328E
:0D091A0012090412092E1208E28F0880F95C
:03000000020800F3
:0C080000787FE4F6D8FD758109020847F6
:03092A00010900C0
:1008E2003082028003308305E4F509FF223081065D
:1008F2007509017F01223084067509FF7FFF22AF4F
:0109020009EB
:0109030022D1
:10080C0002091AE493A3F8E493A34003F68001F2DF
:10081C0008DFF48029E493A3F85407240CC8C333ED
:10082C00C4540F4420C8834004F456800146F6DFBC
:10083C00E4800B0102040810204080900927E47E1C
:10084C00019360BCA3FF543F30E509541FFEE493B1
:10085C00A360010ECF54C025E060A840B8E493A378
:10086C00FAE493A3F8E493A3C8C582C8CAC583CAA3
:10087C00F0A3C8C582C8CAC583CADFE9DEE780BE5B
:01092D0000C9
:00000001FF
